{"abi":[{"type":"function","name":"addProofHash","inputs":[{"name":"proofHash","type":"bytes32","internalType":"bytes32"}],"outputs":[],"stateMutability":"nonpayable"},{"type":"function","name":"verifyProofHash","inputs":[{"name":"proofHash","type":"bytes32","internalType":"bytes32"}],"outputs":[{"name":"","type":"bool","internalType":"bool"}],"stateMutability":"view"},{"type":"event","name":"ProofHashAdded","inputs":[{"name":"user","type":"address","indexed":true,"internalType":"address"},{"name":"proofHash","type":"bytes32","indexed":false,"internalType":"bytes32"}],"anonymous":false}],"bytecode":{"object":"0x608060405234801561001057600080fd5b50610110806100206000396000f3fe6080604052348015600f57600080fd5b506004361060325760003560e01c80636d32b36d146037578063f54fc3f514606a575b600080fd5b6056604236600460c2565b336000908152602081905260409020541490565b604051901515815260200160405180910390f35b6079607536600460c2565b607b565b005b336000818152602081815260409182902084905590518381527f65b24c994c9be643d17e603317159ac8b22cd7a1d505cc71c778b33c15a8346b910160405180910390a250565b60006020828403121560d357600080fd5b503591905056fea264697066735822122031fe85c2026c99ecc2a1b3426756729326c07d447bd95e3524feb8cf8b1b4dc864736f6c63430008110033","linkReferences":{}},"methodIdentifiers":{"addProofHash(bytes32)":"f54fc3f5","verifyProofHash(bytes32)":"6d32b36d"},"id":0}